{
  "_format": "hh-sol-artifact-1",
  "contractName": "PortfolioTracker",
  "sourceName": "src/PortfolioTracker.sol",
  "abi": [
    {
      "anonymous": false,
      "inputs": [
        {
          "indexed": true,
          "internalType": "address",
          "name": "owner",
          "type": "address"
        },
        {
          "indexed": false,
          "internalType": "uint256",
          "name": "chainId",
          "type": "uint256"
        },
        {
          "indexed": false,
          "internalType": "uint256",
          "name": "nativeBalance",
          "type": "uint256"
        },
        {
          "indexed": false,
          "internalType": "uint256",
          "name": "usdcBalance",
          "type": "uint256"
        }
      ],
      "name": "ChainAdded",
      "type": "event"
    },
    {
      "anonymous": false,
      "inputs": [
        {
          "indexed": true,
          "internalType": "address",
          "name": "owner",
          "type": "address"
        },
        {
          "indexed": false,
          "internalType": "uint256",
          "name": "totalValueUSD",
          "type": "uint256"
        }
      ],
      "name": "PortfolioUpdated",
      "type": "event"
    },
    {
      "inputs": [],
      "name": "USDC_BASE",
      "outputs": [
        {
          "internalType": "address",
          "name": "",
          "type": "address"
        }
      ],
      "stateMutability": "view",
      "type": "function"
    },
    {
      "inputs": [],
      "name": "USDC_ETH",
      "outputs": [
        {
          "internalType": "address",
          "name": "",
          "type": "address"
        }
      ],
      "stateMutability": "view",
      "type": "function"
    },
    {
      "inputs": [],
      "name": "USDC_POLYGON",
      "outputs": [
        {
          "internalType": "address",
          "name": "",
          "type": "address"
        }
      ],
      "stateMutability": "view",
      "type": "function"
    },
    {
      "inputs": [
        {
          "internalType": "address",
          "name": "owner",
          "type": "address"
        }
      ],
      "name": "calculateRiskScore",
      "outputs": [
        {
          "internalType": "uint256",
          "name": "riskScore",
          "type": "uint256"
        }
      ],
      "stateMutability": "view",
      "type": "function"
    },
    {
      "inputs": [],
      "name": "ethPriceUSD",
      "outputs": [
        {
          "internalType": "uint256",
          "name": "",
          "type": "uint256"
        }
      ],
      "stateMutability": "view",
      "type": "function"
    },
    {
      "inputs": [
        {
          "internalType": "address",
          "name": "owner",
          "type": "address"
        }
      ],
      "name": "getChainBreakdown",
      "outputs": [
        {
          "internalType": "uint256[]",
          "name": "chainIds",
          "type": "uint256[]"
        },
        {
          "internalType": "uint256[]",
          "name": "chainValuesUSD",
          "type": "uint256[]"
        },
        {
          "internalType": "uint256[]",
          "name": "timestamps",
          "type": "uint256[]"
        }
      ],
      "stateMutability": "view",
      "type": "function"
    },
    {
      "inputs": [
        {
          "internalType": "address",
          "name": "owner",
          "type": "address"
        }
      ],
      "name": "getPortfolio",
      "outputs": [
        {
          "internalType": "uint256",
          "name": "totalValueUSD",
          "type": "uint256"
        },
        {
          "internalType": "uint256",
          "name": "lastUpdated",
          "type": "uint256"
        },
        {
          "internalType": "uint256",
          "name": "chainCount",
          "type": "uint256"
        }
      ],
      "stateMutability": "view",
      "type": "function"
    },
    {
      "inputs": [],
      "name": "maticPriceUSD",
      "outputs": [
        {
          "internalType": "uint256",
          "name": "",
          "type": "uint256"
        }
      ],
      "stateMutability": "view",
      "type": "function"
    },
    {
      "inputs": [
        {
          "internalType": "address",
          "name": "",
          "type": "address"
        }
      ],
      "name": "portfolios",
      "outputs": [
        {
          "internalType": "address",
          "name": "owner",
          "type": "address"
        },
        {
          "internalType": "uint256",
          "name": "lastUpdated",
          "type": "uint256"
        },
        {
          "internalType": "uint256",
          "name": "totalValueUSD",
          "type": "uint256"
        }
      ],
      "stateMutability": "view",
      "type": "function"
    },
    {
      "inputs": [
        {
          "internalType": "uint256",
          "name": "chainId",
          "type": "uint256"
        },
        {
          "internalType": "uint256",
          "name": "nativeBalance",
          "type": "uint256"
        },
        {
          "internalType": "uint256",
          "name": "usdcBalance",
          "type": "uint256"
        }
      ],
      "name": "updateChainBalance",
      "outputs": [],
      "stateMutability": "nonpayable",
      "type": "function"
    },
    {
      "inputs": [
        {
          "internalType": "uint256",
          "name": "newEthPriceUSD",
          "type": "uint256"
        },
        {
          "internalType": "uint256",
          "name": "newMaticPriceUSD",
          "type": "uint256"
        }
      ],
      "name": "updatePrices",
      "outputs": [],
      "stateMutability": "nonpayable",
      "type": "function"
    }
  ],
  "bytecode": "0x608060405263b2d05e00600155620b71b060025534801561001f57600080fd5b506111ef8061002f6000396000f3fe608060405234801561001057600080fd5b50600436106100a95760003560e01c80637baab3da116100715780637baab3da1461014257806391d011ce14610174578063d73d56bb146101a4578063dff46859146101c2578063eb22ae11146101f4578063ef88d7f014610226576100a9565b8063072cf5f0146100ae57806341d2c4cb146100cc5780634240686c146100ea57806367c292e5146101085780636db16c1114610124575b600080fd5b6100b6610242565b6040516100c39190610cce565b60405180910390f35b6100d4610248565b6040516100e19190610d2a565b60405180910390f35b6100f2610260565b6040516100ff9190610d2a565b60405180910390f35b610122600480360381019061011d9190610d76565b610278565b005b61012c6106a5565b6040516101399190610d2a565b60405180910390f35b61015c60048036038101906101579190610df5565b6106bd565b60405161016b93929190610e22565b60405180910390f35b61018e60048036038101906101899190610df5565b610707565b60405161019b9190610cce565b60405180910390f35b6101ac610987565b6040516101b99190610cce565b60405180910390f35b6101dc60048036038101906101d79190610df5565b61098d565b6040516101eb93929190610f17565b60405180910390f35b61020e60048036038101906102099190610df5565b610c3d565b60405161021d93929190610f63565b60405180910390f35b610240600480360381019061023b9190610f9a565b610ca3565b005b60025481565b73036cbd53842c5426634e7929541ec2318f3dcf7e81565b731c7d4b196cb0c7b01d743fbc6116a902379c723881565b60008060003373ffffffffffffffffffffffffffffffffffffffff1673ffffffffffffffffffffffffffffffffffffffff1681526020019081526020016000209050600060018514806102cc575061210585145b156102f957670de0b6b3a7640000600154856102e89190611009565b6102f2919061107a565b9050610326565b6089850361032557670de0b6b3a7640000600254856103189190611009565b610322919061107a565b90505b5b6000805b836003018054905081101561040757868460030182815481106103505761034f6110ab565b5b906000526020600020906004020160000154036103f4578584600301828154811061037e5761037d6110ab565b5b906000526020600020906004020160010181905550848460030182815481106103aa576103a96110ab565b5b906000526020600020906004020160020181905550428460030182815481106103d6576103d56110ab565b5b90600052602060002090600402016003018190555060019150610407565b80806103ff906110da565b91505061032a565b5080610486578260030160405180608001604052808881526020018781526020018681526020014281525090806001815401808255809150506001900390600052602060002090600402016000909190919091506000820151816000015560208201518160010155604082015181600201556060820151816003015550505b6000805b84600301805490508110156105a65760008560030182815481106104b1576104b06110ab565b5b90600052602060002090600402016040518060800160405290816000820154815260200160018201548152602001600282015481526020016003820154815250509050600060018260000151148061050e57506121058260000151145b1561053f57670de0b6b3a7640000600154836020015161052e9190611009565b610538919061107a565b9050610574565b608982600001510361057357670de0b6b3a764000060025483602001516105669190611009565b610570919061107a565b90505b5b8160400151816105849190611122565b8461058f9190611122565b93505050808061059e906110da565b91505061048a565b50338460000160006101000a81548173ffffffffffffffffffffffffffffffffffffffff021916908373ffffffffffffffffffffffffffffffffffffffff1602179055508084600201819055504284600101819055503373ffffffffffffffffffffffffffffffffffffffff167ffcfa0761dab6873023e04c2d8e99cefdc3d64ee860c8bdf9742211179e723bed826040516106429190610cce565b60405180910390a23373ffffffffffffffffffffffffffffffffffffffff167f0b82ac62909692abe3dddbea75fd32c2bb973cdfe8dd3040c1883b7b72ca487e88888860405161069493929190610f63565b60405180910390a250505050505050565b7341e94eb019c0762f9bfcf9fb1e58725bfb0e758281565b60006020528060005260406000206000915090508060000160009054906101000a900473ffffffffffffffffffffffffffffffffffffffff16908060010154908060020154905083565b6000806000808473ffffffffffffffffffffffffffffffffffffffff1673ffffffffffffffffffffffffffffffffffffffff16815260200190815260200160002090506000816003018054905003610763576000915050610982565b6000816002015490506000810361077f57600092505050610982565b60005b82600301805490508110156108c95760008360030182815481106107a9576107a86110ab565b5b90600052602060002090600402016040518060800160405290816000820154815260200160018201548152602001600282015481526020016003820154815250509050600060018260000151148061080657506121058260000151145b1561083757670de0b6b3a764000060015483602001516108269190611009565b610830919061107a565b905061086c565b608982600001510361086b57670de0b6b3a7640000600254836020015161085e9190611009565b610868919061107a565b90505b5b81604001518161087c9190611122565b905060008460648361088e9190611009565b610898919061107a565b905060328111156108b357601e876108b09190611122565b96505b50505080806108c1906110da565b915050610782565b506000805b8360030180549050811015610925578360030181815481106108f3576108f26110ab565b5b906000526020600020906004020160020154826109109190611122565b9150808061091d906110da565b9150506108ce565b506000826064836109369190611009565b610940919061107a565b90506014811061096a5760148511610959576000610967565b6014856109669190611156565b5b94505b60648511610978578461097b565b60645b9450505050505b919050565b60015481565b606080606060008060008673ffffffffffffffffffffffffffffffffffffffff1673ffffffffffffffffffffffffffffffffffffffff16815260200190815260200160002090506000816003018054905090508067ffffffffffffffff8111156109fa576109f961118a565b5b604051908082528060200260200182016040528015610a285781602001602082028036833780820191505090505b5094508067ffffffffffffffff811115610a4557610a4461118a565b5b604051908082528060200260200182016040528015610a735781602001602082028036833780820191505090505b5093508067ffffffffffffffff811115610a9057610a8f61118a565b5b604051908082528060200260200182016040528015610abe5781602001602082028036833780820191505090505b50925060005b81811015610c33576000836003018281548110610ae457610ae36110ab565b5b906000526020600020906004020160405180608001604052908160008201548152602001600182015481526020016002820154815260200160038201548152505090508060000151878381518110610b3f57610b3e6110ab565b5b6020026020010181815250508060600151858381518110610b6357610b626110ab565b5b6020026020010181815250506000600182600001511480610b8957506121058260000151145b15610bba57670de0b6b3a76400006001548360200151610ba99190611009565b610bb3919061107a565b9050610bef565b6089826000015103610bee57670de0b6b3a76400006002548360200151610be19190611009565b610beb919061107a565b90505b5b816040015181610bff9190611122565b878481518110610c1257610c116110ab565b5b60200260200101818152505050508080610c2b906110da565b915050610ac4565b5050509193909250565b6000806000806000808673ffffffffffffffffffffffffffffffffffffffff1673ffffffffffffffffffffffffffffffffffffffff1681526020019081526020016000209050806002015481600101548260030180549050935093509350509193909250565b81600181905550806002819055505050565b6000819050919050565b610cc881610cb5565b82525050565b6000602082019050610ce36000830184610cbf565b92915050565b600073ffffffffffffffffffffffffffffffffffffffff82169050919050565b6000610d1482610ce9565b9050919050565b610d2481610d09565b82525050565b6000602082019050610d3f6000830184610d1b565b92915050565b600080fd5b610d5381610cb5565b8114610d5e57600080fd5b50565b600081359050610d7081610d4a565b92915050565b600080600060608486031215610d8f57610d8e610d45565b5b6000610d9d86828701610d61565b9350506020610dae86828701610d61565b9250506040610dbf86828701610d61565b9150509250925092565b610dd281610d09565b8114610ddd57600080fd5b50565b600081359050610def81610dc9565b92915050565b600060208284031215610e0b57610e0a610d45565b5b6000610e1984828501610de0565b91505092915050565b6000606082019050610e376000830186610d1b565b610e446020830185610cbf565b610e516040830184610cbf565b949350505050565b600081519050919050565b600082825260208201905092915050565b6000819050602082019050919050565b610e8e81610cb5565b82525050565b6000610ea08383610e85565b60208301905092915050565b6000602082019050919050565b6000610ec482610e59565b610ece8185610e64565b9350610ed983610e75565b8060005b83811015610f0a578151610ef18882610e94565b9750610efc83610eac565b925050600181019050610edd565b5085935050505092915050565b60006060820190508181036000830152610f318186610eb9565b90508181036020830152610f458185610eb9565b90508181036040830152610f598184610eb9565b9050949350505050565b6000606082019050610f786000830186610cbf565b610f856020830185610cbf565b610f926040830184610cbf565b949350505050565b60008060408385031215610fb157610fb0610d45565b5b6000610fbf85828601610d61565b9250506020610fd085828601610d61565b9150509250929050565b7f4e487b7100000000000000000000000000000000000000000000000000000000600052601160045260246000fd5b600061101482610cb5565b915061101f83610cb5565b925082820261102d81610cb5565b9150828204841483151761104457611043610fda565b5b5092915050565b7f4e487b7100000000000000000000000000000000000000000000000000000000600052601260045260246000fd5b600061108582610cb5565b915061109083610cb5565b9250826110a05761109f61104b565b5b828204905092915050565b7f4e487b7100000000000000000000000000000000000000000000000000000000600052603260045260246000fd5b60006110e582610cb5565b91507fffffffffffffffffffffffffffffffffffffffffffffffffffffffffffffffff820361111757611116610fda565b5b600182019050919050565b600061112d82610cb5565b915061113883610cb5565b92508282019050808211156111505761114f610fda565b5b92915050565b600061116182610cb5565b915061116c83610cb5565b925082820390508181111561118457611183610fda565b5b92915050565b7f4e487b7100000000000000000000000000000000000000000000000000000000600052604160045260246000fdfea264697066735822122091d7a2d472e5ac140e67ecd6d28c5f534fff3ea11076d7fcb45b5df40a8fe3da64736f6c63430008140033",
  "linkReferences": {},
  "deployedLinkReferences": {}
}