{
  "_format": "hh-sol-artifact-1",
  "contractName": "USDCStreamDCA",
  "sourceName": "src/USDCStreamDCA.sol",
  "abi": [
    {
      "inputs": [
        {
          "internalType": "address",
          "name": "_usdc",
          "type": "address"
        },
        {
          "internalType": "address",
          "name": "_dexAggregator",
          "type": "address"
        }
      ],
      "stateMutability": "nonpayable",
      "type": "constructor"
    },
    {
      "anonymous": false,
      "inputs": [
        {
          "indexed": false,
          "internalType": "uint256",
          "name": "streamId",
          "type": "uint256"
        }
      ],
      "name": "StreamCancelled",
      "type": "event"
    },
    {
      "anonymous": false,
      "inputs": [
        {
          "indexed": false,
          "internalType": "uint256",
          "name": "streamId",
          "type": "uint256"
        },
        {
          "indexed": false,
          "internalType": "address",
          "name": "user",
          "type": "address"
        },
        {
          "indexed": false,
          "internalType": "address",
          "name": "token",
          "type": "address"
        },
        {
          "indexed": false,
          "internalType": "uint256",
          "name": "usdcPerSecond",
          "type": "uint256"
        },
        {
          "indexed": false,
          "internalType": "bool",
          "name": "yieldEnabled",
          "type": "bool"
        }
      ],
      "name": "StreamCreated",
      "type": "event"
    },
    {
      "anonymous": false,
      "inputs": [
        {
          "indexed": false,
          "internalType": "uint256",
          "name": "streamId",
          "type": "uint256"
        },
        {
          "indexed": false,
          "internalType": "uint256",
          "name": "usdcAmount",
          "type": "uint256"
        },
        {
          "indexed": false,
          "internalType": "uint256",
          "name": "tokenAmount",
          "type": "uint256"
        },
        {
          "indexed": false,
          "internalType": "uint256",
          "name": "yieldHarvested",
          "type": "uint256"
        }
      ],
      "name": "StreamExecuted",
      "type": "event"
    },
    {
      "inputs": [],
      "name": "AAVE_POOL",
      "outputs": [
        {
          "internalType": "address",
          "name": "",
          "type": "address"
        }
      ],
      "stateMutability": "view",
      "type": "function"
    },
    {
      "inputs": [],
      "name": "USDC",
      "outputs": [
        {
          "internalType": "address",
          "name": "",
          "type": "address"
        }
      ],
      "stateMutability": "view",
      "type": "function"
    },
    {
      "inputs": [
        {
          "internalType": "uint256",
          "name": "streamId",
          "type": "uint256"
        }
      ],
      "name": "cancelStream",
      "outputs": [],
      "stateMutability": "nonpayable",
      "type": "function"
    },
    {
      "inputs": [
        {
          "internalType": "address",
          "name": "token",
          "type": "address"
        },
        {
          "internalType": "uint256",
          "name": "usdcPerDay",
          "type": "uint256"
        },
        {
          "internalType": "bool",
          "name": "yieldEnabled",
          "type": "bool"
        }
      ],
      "name": "createStream",
      "outputs": [
        {
          "internalType": "uint256",
          "name": "",
          "type": "uint256"
        }
      ],
      "stateMutability": "nonpayable",
      "type": "function"
    },
    {
      "inputs": [],
      "name": "dexAggregator",
      "outputs": [
        {
          "internalType": "address",
          "name": "",
          "type": "address"
        }
      ],
      "stateMutability": "view",
      "type": "function"
    },
    {
      "inputs": [
        {
          "internalType": "uint256[]",
          "name": "streamIds",
          "type": "uint256[]"
        }
      ],
      "name": "executeBatch",
      "outputs": [],
      "stateMutability": "nonpayable",
      "type": "function"
    },
    {
      "inputs": [
        {
          "internalType": "uint256",
          "name": "streamId",
          "type": "uint256"
        }
      ],
      "name": "executeStream",
      "outputs": [],
      "stateMutability": "nonpayable",
      "type": "function"
    },
    {
      "inputs": [],
      "name": "nextStreamId",
      "outputs": [
        {
          "internalType": "uint256",
          "name": "",
          "type": "uint256"
        }
      ],
      "stateMutability": "view",
      "type": "function"
    },
    {
      "inputs": [
        {
          "internalType": "uint256",
          "name": "",
          "type": "uint256"
        }
      ],
      "name": "streams",
      "outputs": [
        {
          "internalType": "address",
          "name": "user",
          "type": "address"
        },
        {
          "internalType": "address",
          "name": "token",
          "type": "address"
        },
        {
          "internalType": "uint256",
          "name": "usdcPerSecond",
          "type": "uint256"
        },
        {
          "internalType": "uint256",
          "name": "lastExecution",
          "type": "uint256"
        },
        {
          "internalType": "uint256",
          "name": "totalExecuted",
          "type": "uint256"
        },
        {
          "internalType": "bool",
          "name": "active",
          "type": "bool"
        },
        {
          "internalType": "bool",
          "name": "yieldEnabled",
          "type": "bool"
        }
      ],
      "stateMutability": "view",
      "type": "function"
    }
  ],
  "bytecode": "0x60a06040523480156200001157600080fd5b50604051620016ce380380620016ce83398181016040528101906200003791906200011e565b8173ffffffffffffffffffffffffffffffffffffffff1660808173ffffffffffffffffffffffffffffffffffffffff168152505080600260006101000a81548173ffffffffffffffffffffffffffffffffffffffff021916908373ffffffffffffffffffffffffffffffffffffffff160217905550505062000165565b600080fd5b600073ffffffffffffffffffffffffffffffffffffffff82169050919050565b6000620000e682620000b9565b9050919050565b620000f881620000d9565b81146200010457600080fd5b50565b6000815190506200011881620000ed565b92915050565b60008060408385031215620001385762000137620000b4565b5b6000620001488582860162000107565b92505060206200015b8582860162000107565b9150509250929050565b60805161152a620001a46000396000818161045b01528181610542015281816108920152818161099101528181610ab00152610b30015261152a6000f3fe608060405234801561001057600080fd5b50600436106100935760003560e01c806364d60d911161006657806364d60d91146101205780636db9241b146101565780637c21d5e01461017257806389a3027114610190578063a07d62b4146101ae57610093565b80630265d99314610098578063072a97fe146100b457806308a01675146100e45780631e99d56914610102575b600080fd5b6100b260048036038101906100ad9190610c6e565b6101ca565b005b6100ce60048036038101906100c99190610d87565b610212565b6040516100db9190610de9565b60405180910390f35b6100ec61065f565b6040516100f99190610e13565b60405180910390f35b61010a610677565b6040516101179190610de9565b60405180910390f35b61013a60048036038101906101359190610e2e565b61067d565b60405161014d9796959493929190610e6a565b60405180910390f35b610170600480360381019061016b9190610e2e565b610719565b005b61017a61086a565b6040516101879190610e13565b60405180910390f35b610198610890565b6040516101a59190610e13565b60405180910390f35b6101c860048036038101906101c39190610e2e565b6108b4565b005b60005b8282905081101561020d576101fa8383838181106101ee576101ed610ed9565b5b905060200201356108b4565b808061020590610f37565b9150506101cd565b505050565b60008073ffffffffffffffffffffffffffffffffffffffff168473ffffffffffffffffffffffffffffffffffffffff1603610282576040517f08c379a000000000000000000000000000000000000000000000000000000000815260040161027990610fdc565b60405180910390fd5b600083116102c5576040517f08c379a00000000000000000000000000000000000000000000000000000000081526004016102bc90611048565b60405180910390fd5b6000600160008154809291906102da90610f37565b919050559050600062015180856102f19190611097565b90506040518060e001604052803373ffffffffffffffffffffffffffffffffffffffff1681526020018773ffffffffffffffffffffffffffffffffffffffff1681526020018281526020014281526020016000815260200160011515815260200185151581525060008084815260200190815260200160002060008201518160000160006101000a81548173ffffffffffffffffffffffffffffffffffffffff021916908373ffffffffffffffffffffffffffffffffffffffff16021790555060208201518160010160006101000a81548173ffffffffffffffffffffffffffffffffffffffff021916908373ffffffffffffffffffffffffffffffffffffffff16021790555060408201518160020155606082015181600301556080820151816004015560a08201518160050160006101000a81548160ff02191690831515021790555060c08201518160050160016101000a81548160ff0219169083151502179055509050507f000000000000000000000000000000000000000000000000000000000000000073ffffffffffffffffffffffffffffffffffffffff1663095ea7b3600260009054906101000a900473ffffffffffffffffffffffffffffffffffffffff167fffffffffffffffffffffffffffffffffffffffffffffffffffffffffffffffff6040518363ffffffff1660e01b81526004016104f69291906110c8565b6020604051808303816000875af1158015610515573d6000803e3d6000fd5b505050506040513d601f19601f820116820180604052508101906105399190611106565b508315610614577f000000000000000000000000000000000000000000000000000000000000000073ffffffffffffffffffffffffffffffffffffffff1663095ea7b3736ae43d3271ff6888e7fc43fd7321a503ff7389517fffffffffffffffffffffffffffffffffffffffffffffffffffffffffffffffff6040518363ffffffff1660e01b81526004016105cf9291906110c8565b6020604051808303816000875af11580156105ee573d6000803e3d6000fd5b505050506040513d601f19601f820116820180604052508101906106129190611106565b505b7f5c3eade0563de351738d9f8cf24fa854e19743063ef151945380981116fe0f0b823388848860405161064b959493929190611133565b60405180910390a181925050509392505050565b736ae43d3271ff6888e7fc43fd7321a503ff73895181565b60015481565b60006020528060005260406000206000915090508060000160009054906101000a900473ffffffffffffffffffffffffffffffffffffffff16908060010160009054906101000a900473ffffffffffffffffffffffffffffffffffffffff16908060020154908060030154908060040154908060050160009054906101000a900460ff16908060050160019054906101000a900460ff16905087565b600080600083815260200190815260200160002090508060000160009054906101000a900473ffffffffffffffffffffffffffffffffffffffff1673ffffffffffffffffffffffffffffffffffffffff163373ffffffffffffffffffffffffffffffffffffffff16146107c1576040517f08c379a00000000000000000000000000000000000000000000000000000000081526004016107b8906111d2565b60405180910390fd5b8060050160009054906101000a900460ff16610812576040517f08c379a00000000000000000000000000000000000000000000000000000000081526004016108099061123e565b60405180910390fd5b60008160050160006101000a81548160ff0219169083151502179055507f75b8c91e46f219f2164d6bce576e7cebd2d3ff8749726009fcafdf04e2e1eb7b8260405161085e9190610de9565b60405180910390a15050565b600260009054906101000a900473ffffffffffffffffffffffffffffffffffffffff1681565b7f000000000000000000000000000000000000000000000000000000000000000081565b600080600083815260200190815260200160002090508060050160009054906101000a900460ff1661091b576040517f08c379a0000000000000000000000000000000000000000000000000000000008152600401610912906112aa565b60405180910390fd5b600081600301544261092d91906112ca565b905060008111610972576040517f08c379a00000000000000000000000000000000000000000000000000000000081526004016109699061134a565b60405180910390fd5b6000826002015482610984919061136a565b90506000811115610be0577f000000000000000000000000000000000000000000000000000000000000000073ffffffffffffffffffffffffffffffffffffffff166323b872dd8460000160009054906101000a900473ffffffffffffffffffffffffffffffffffffffff1630846040518463ffffffff1660e01b8152600401610a10939291906113ac565b6020604051808303816000875af1158015610a2f573d6000803e3d6000fd5b505050506040513d601f19601f82011682018060405250810190610a539190611106565b5060008360050160019054906101000a900460ff1615610b29576000600a83610a7c9190611097565b9050736ae43d3271ff6888e7fc43fd7321a503ff73895173ffffffffffffffffffffffffffffffffffffffff1663e8eda9df7f0000000000000000000000000000000000000000000000000000000000000000833060006040518563ffffffff1660e01b8152600401610af29493929190611436565b600060405180830381600087803b158015610b0c57600080fd5b505af1158015610b20573d6000803e3d6000fd5b50505050809150505b6000610b7a7f00000000000000000000000000000000000000000000000000000000000000008660010160009054906101000a900473ffffffffffffffffffffffffffffffffffffffff1685610be6565b905042856003018190555082856004016000828254610b99919061147b565b925050819055507f12b95d37fa038924a4d5f7568c6f07619f8c3f84ecfbab57220f3c7d50f25cda86848385604051610bd594939291906114af565b60405180910390a150505b50505050565b60006103e882610bf6919061136a565b90509392505050565b600080fd5b600080fd5b600080fd5b600080fd5b600080fd5b60008083601f840112610c2e57610c2d610c09565b5b8235905067ffffffffffffffff811115610c4b57610c4a610c0e565b5b602083019150836020820283011115610c6757610c66610c13565b5b9250929050565b60008060208385031215610c8557610c84610bff565b5b600083013567ffffffffffffffff811115610ca357610ca2610c04565b5b610caf85828601610c18565b92509250509250929050565b600073ffffffffffffffffffffffffffffffffffffffff82169050919050565b6000610ce682610cbb565b9050919050565b610cf681610cdb565b8114610d0157600080fd5b50565b600081359050610d1381610ced565b92915050565b6000819050919050565b610d2c81610d19565b8114610d3757600080fd5b50565b600081359050610d4981610d23565b92915050565b60008115159050919050565b610d6481610d4f565b8114610d6f57600080fd5b50565b600081359050610d8181610d5b565b92915050565b600080600060608486031215610da057610d9f610bff565b5b6000610dae86828701610d04565b9350506020610dbf86828701610d3a565b9250506040610dd086828701610d72565b9150509250925092565b610de381610d19565b82525050565b6000602082019050610dfe6000830184610dda565b92915050565b610e0d81610cdb565b82525050565b6000602082019050610e286000830184610e04565b92915050565b600060208284031215610e4457610e43610bff565b5b6000610e5284828501610d3a565b91505092915050565b610e6481610d4f565b82525050565b600060e082019050610e7f600083018a610e04565b610e8c6020830189610e04565b610e996040830188610dda565b610ea66060830187610dda565b610eb36080830186610dda565b610ec060a0830185610e5b565b610ecd60c0830184610e5b565b98975050505050505050565b7f4e487b7100000000000000000000000000000000000000000000000000000000600052603260045260246000fd5b7f4e487b7100000000000000000000000000000000000000000000000000000000600052601160045260246000fd5b6000610f4282610d19565b91507fffffffffffffffffffffffffffffffffffffffffffffffffffffffffffffffff8203610f7457610f73610f08565b5b600182019050919050565b600082825260208201905092915050565b7f496e76616c696420746f6b656e00000000000000000000000000000000000000600082015250565b6000610fc6600d83610f7f565b9150610fd182610f90565b602082019050919050565b60006020820190508181036000830152610ff581610fb9565b9050919050565b7f416d6f756e74206d757374206265203e20300000000000000000000000000000600082015250565b6000611032601283610f7f565b915061103d82610ffc565b602082019050919050565b6000602082019050818103600083015261106181611025565b9050919050565b7f4e487b7100000000000000000000000000000000000000000000000000000000600052601260045260246000fd5b60006110a282610d19565b91506110ad83610d19565b9250826110bd576110bc611068565b5b828204905092915050565b60006040820190506110dd6000830185610e04565b6110ea6020830184610dda565b9392505050565b60008151905061110081610d5b565b92915050565b60006020828403121561111c5761111b610bff565b5b600061112a848285016110f1565b91505092915050565b600060a0820190506111486000830188610dda565b6111556020830187610e04565b6111626040830186610e04565b61116f6060830185610dda565b61117c6080830184610e5b565b9695505050505050565b7f4e6f742073747265616d206f776e657200000000000000000000000000000000600082015250565b60006111bc601083610f7f565b91506111c782611186565b602082019050919050565b600060208201905081810360008301526111eb816111af565b9050919050565b7f416c726561647920696e61637469766500000000000000000000000000000000600082015250565b6000611228601083610f7f565b9150611233826111f2565b602082019050919050565b600060208201905081810360008301526112578161121b565b9050919050565b7f53747265616d20696e6163746976650000000000000000000000000000000000600082015250565b6000611294600f83610f7f565b915061129f8261125e565b602082019050919050565b600060208201905081810360008301526112c381611287565b9050919050565b60006112d582610d19565b91506112e083610d19565b92508282039050818111156112f8576112f7610f08565b5b92915050565b7f4e6f2074696d6520656c61707365640000000000000000000000000000000000600082015250565b6000611334600f83610f7f565b915061133f826112fe565b602082019050919050565b6000602082019050818103600083015261136381611327565b9050919050565b600061137582610d19565b915061138083610d19565b925082820261138e81610d19565b915082820484148315176113a5576113a4610f08565b5b5092915050565b60006060820190506113c16000830186610e04565b6113ce6020830185610e04565b6113db6040830184610dda565b949350505050565b6000819050919050565b600061ffff82169050919050565b6000819050919050565b600061142061141b611416846113e3565b6113fb565b6113ed565b9050919050565b61143081611405565b82525050565b600060808201905061144b6000830187610e04565b6114586020830186610dda565b6114656040830185610e04565b6114726060830184611427565b95945050505050565b600061148682610d19565b915061149183610d19565b92508282019050808211156114a9576114a8610f08565b5b92915050565b60006080820190506114c46000830187610dda565b6114d16020830186610dda565b6114de6040830185610dda565b6114eb6060830184610dda565b9594505050505056fea26469706673582212208accedf125c0056eb707102c4d772763cc54a18c064ba3cbedd6c8a369ed1b5a64736f6c63430008140033",
  "linkReferences": {},
  "deployedLinkReferences": {}
}