{"src/PortfolioTracker.sol":{"PortfolioTracker":{"abi":[{"anonymous":false,"inputs":[{"indexed":true,"internalType":"address","name":"owner","type":"address"},{"indexed":false,"internalType":"uint256","name":"chainId","type":"uint256"},{"indexed":false,"internalType":"uint256","name":"nativeBalance","type":"uint256"},{"indexed":false,"internalType":"uint256","name":"usdcBalance","type":"uint256"}],"name":"ChainAdded","type":"event"},{"anonymous":false,"inputs":[{"indexed":true,"internalType":"address","name":"owner","type":"address"},{"indexed":false,"internalType":"uint256","name":"totalValueUSD","type":"uint256"}],"name":"PortfolioUpdated","type":"event"},{"inputs":[],"name":"USDC_BASE","outputs":[{"internalType":"address","name":"","type":"address"}],"stateMutability":"view","type":"function"},{"inputs":[],"name":"USDC_ETH","outputs":[{"internalType":"address","name":"","type":"address"}],"stateMutability":"view","type":"function"},{"inputs":[],"name":"USDC_POLYGON","outputs":[{"internalType":"address","name":"","type":"address"}],"stateMutability":"view","type":"function"},{"inputs":[{"internalType":"address","name":"owner","type":"address"}],"name":"calculateRiskScore","outputs":[{"internalType":"uint256","name":"riskScore","type":"uint256"}],"stateMutability":"view","type":"function"},{"inputs":[],"name":"ethPriceUSD","outputs":[{"internalType":"uint256","name":"","type":"uint256"}],"stateMutability":"view","type":"function"},{"inputs":[{"internalType":"address","name":"owner","type":"address"}],"name":"getChainBreakdown","outputs":[{"internalType":"uint256[]","name":"chainIds","type":"uint256[]"},{"internalType":"uint256[]","name":"chainValuesUSD","type":"uint256[]"},{"internalType":"uint256[]","name":"timestamps","type":"uint256[]"}],"stateMutability":"view","type":"function"},{"inputs":[{"internalType":"address","name":"owner","type":"address"}],"name":"getPortfolio","outputs":[{"internalType":"uint256","name":"totalValueUSD","type":"uint256"},{"internalType":"uint256","name":"lastUpdated","type":"uint256"},{"internalType":"uint256","name":"chainCount","type":"uint256"}],"stateMutability":"view","type":"function"},{"inputs":[],"name":"maticPriceUSD","outputs":[{"internalType":"uint256","name":"","type":"uint256"}],"stateMutability":"view","type":"function"},{"inputs":[{"internalType":"address","name":"","type":"address"}],"name":"portfolios","outputs":[{"internalType":"address","name":"owner","type":"address"},{"internalType":"uint256","name":"lastUpdated","type":"uint256"},{"internalType":"uint256","name":"totalValueUSD","type":"uint256"}],"stateMutability":"view","type":"function"},{"inputs":[{"internalType":"uint256","name":"chainId","type":"uint256"},{"internalType":"uint256","name":"nativeBalance","type":"uint256"},{"internalType":"uint256","name":"usdcBalance","type":"uint256"}],"name":"updateChainBalance","outputs":[],"stateMutability":"nonpayable","type":"function"},{"inputs":[{"internalType":"uint256","name":"newEthPriceUSD","type":"uint256"},{"internalType":"uint256","name":"newMaticPriceUSD","type":"uint256"}],"name":"updatePrices","outputs":[],"stateMutability":"nonpayable","type":"function"}],"evm":{"bytecode":{"linkReferences":{},"object":"608060405263b2d05e00600155620b71b060025534801561001f57600080fd5b506111ef8061002f6000396000f3fe608060405234801561001057600080fd5b50600436106100a95760003560e01c80637baab3da116100715780637baab3da1461014257806391d011ce14610174578063d73d56bb146101a4578063dff46859146101c2578063eb22ae11146101f4578063ef88d7f014610226576100a9565b8063072cf5f0146100ae57806341d2c4cb146100cc5780634240686c146100ea57806367c292e5146101085780636db16c1114610124575b600080fd5b6100b6610242565b6040516100c39190610cce565b60405180910390f35b6100d4610248565b6040516100e19190610d2a565b60405180910390f35b6100f2610260565b6040516100ff9190610d2a565b60405180910390f35b610122600480360381019061011d9190610d76565b610278565b005b61012c6106a5565b6040516101399190610d2a565b60405180910390f35b61015c60048036038101906101579190610df5565b6106bd565b60405161016b93929190610e22565b60405180910390f35b61018e60048036038101906101899190610df5565b610707565b60405161019b9190610cce565b60405180910390f35b6101ac610987565b6040516101b99190610cce565b60405180910390f35b6101dc60048036038101906101d79190610df5565b61098d565b6040516101eb93929190610f17565b60405180910390f35b61020e60048036038101906102099190610df5565b610c3d565b60405161021d93929190610f63565b60405180910390f35b610240600480360381019061023b9190610f9a565b610ca3565b005b60025481565b73036cbd53842c5426634e7929541ec2318f3dcf7e81565b731c7d4b196cb0c7b01d743fbc6116a902379c723881565b60008060003373ffffffffffffffffffffffffffffffffffffffff1673ffffffffffffffffffffffffffffffffffffffff1681526020019081526020016000209050600060018514806102cc575061210585145b156102f957670de0b6b3a7640000600154856102e89190611009565b6102f2919061107a565b9050610326565b6089850361032557670de0b6b3a7640000600254856103189190611009565b610322919061107a565b90505b5b6000805b836003018054905081101561040757868460030182815481106103505761034f6110ab565b5b906000526020600020906004020160000154036103f4578584600301828154811061037e5761037d6110ab565b5b906000526020600020906004020160010181905550848460030182815481106103aa576103a96110ab565b5b906000526020600020906004020160020181905550428460030182815481106103d6576103d56110ab565b5b90600052602060002090600402016003018190555060019150610407565b80806103ff906110da565b91505061032a565b5080610486578260030160405180608001604052808881526020018781526020018681526020014281525090806001815401808255809150506001900390600052602060002090600402016000909190919091506000820151816000015560208201518160010155604082015181600201556060820151816003015550505b6000805b84600301805490508110156105a65760008560030182815481106104b1576104b06110ab565b5b90600052602060002090600402016040518060800160405290816000820154815260200160018201548152602001600282015481526020016003820154815250509050600060018260000151148061050e57506121058260000151145b1561053f57670de0b6b3a7640000600154836020015161052e9190611009565b610538919061107a565b9050610574565b608982600001510361057357670de0b6b3a764000060025483602001516105669190611009565b610570919061107a565b90505b5b8160400151816105849190611122565b8461058f9190611122565b93505050808061059e906110da565b91505061048a565b50338460000160006101000a81548173ffffffffffffffffffffffffffffffffffffffff021916908373ffffffffffffffffffffffffffffffffffffffff1602179055508084600201819055504284600101819055503373ffffffffffffffffffffffffffffffffffffffff167ffcfa0761dab6873023e04c2d8e99cefdc3d64ee860c8bdf9742211179e723bed826040516106429190610cce565b60405180910390a23373ffffffffffffffffffffffffffffffffffffffff167f0b82ac62909692abe3dddbea75fd32c2bb973cdfe8dd3040c1883b7b72ca487e88888860405161069493929190610f63565b60405180910390a250505050505050565b7341e94eb019c0762f9bfcf9fb1e58725bfb0e758281565b60006020528060005260406000206000915090508060000160009054906101000a900473ffffffffffffffffffffffffffffffffffffffff16908060010154908060020154905083565b6000806000808473ffffffffffffffffffffffffffffffffffffffff1673ffffffffffffffffffffffffffffffffffffffff16815260200190815260200160002090506000816003018054905003610763576000915050610982565b6000816002015490506000810361077f57600092505050610982565b60005b82600301805490508110156108c95760008360030182815481106107a9576107a86110ab565b5b90600052602060002090600402016040518060800160405290816000820154815260200160018201548152602001600282015481526020016003820154815250509050600060018260000151148061080657506121058260000151145b1561083757670de0b6b3a764000060015483602001516108269190611009565b610830919061107a565b905061086c565b608982600001510361086b57670de0b6b3a7640000600254836020015161085e9190611009565b610868919061107a565b90505b5b81604001518161087c9190611122565b905060008460648361088e9190611009565b610898919061107a565b905060328111156108b357601e876108b09190611122565b96505b50505080806108c1906110da565b915050610782565b506000805b8360030180549050811015610925578360030181815481106108f3576108f26110ab565b5b906000526020600020906004020160020154826109109190611122565b9150808061091d906110da565b9150506108ce565b506000826064836109369190611009565b610940919061107a565b90506014811061096a5760148511610959576000610967565b6014856109669190611156565b5b94505b60648511610978578461097b565b60645b9450505050505b919050565b60015481565b606080606060008060008673ffffffffffffffffffffffffffffffffffffffff1673ffffffffffffffffffffffffffffffffffffffff16815260200190815260200160002090506000816003018054905090508067ffffffffffffffff8111156109fa576109f961118a565b5b604051908082528060200260200182016040528015610a285781602001602082028036833780820191505090505b5094508067ffffffffffffffff811115610a4557610a4461118a565b5b604051908082528060200260200182016040528015610a735781602001602082028036833780820191505090505b5093508067ffffffffffffffff811115610a9057610a8f61118a565b5b604051908082528060200260200182016040528015610abe5781602001602082028036833780820191505090505b50925060005b81811015610c33576000836003018281548110610ae457610ae36110ab565b5b906000526020600020906004020160405180608001604052908160008201548152602001600182015481526020016002820154815260200160038201548152505090508060000151878381518110610b3f57610b3e6110ab565b5b6020026020010181815250508060600151858381518110610b6357610b626110ab565b5b6020026020010181815250506000600182600001511480610b8957506121058260000151145b15610bba57670de0b6b3a76400006001548360200151610ba99190611009565b610bb3919061107a565b9050610bef565b6089826000015103610bee57670de0b6b3a76400006002548360200151610be19190611009565b610beb919061107a565b90505b5b816040015181610bff9190611122565b878481518110610c1257610c116110ab565b5b60200260200101818152505050508080610c2b906110da565b915050610ac4565b5050509193909250565b6000806000806000808673ffffffffffffffffffffffffffffffffffffffff1673ffffffffffffffffffffffffffffffffffffffff1681526020019081526020016000209050806002015481600101548260030180549050935093509350509193909250565b81600181905550806002819055505050565b6000819050919050565b610cc881610cb5565b82525050565b6000602082019050610ce36000830184610cbf565b92915050565b600073ffffffffffffffffffffffffffffffffffffffff82169050919050565b6000610d1482610ce9565b9050919050565b610d2481610d09565b82525050565b6000602082019050610d3f6000830184610d1b565b92915050565b600080fd5b610d5381610cb5565b8114610d5e57600080fd5b50565b600081359050610d7081610d4a565b92915050565b600080600060608486031215610d8f57610d8e610d45565b5b6000610d9d86828701610d61565b9350506020610dae86828701610d61565b9250506040610dbf86828701610d61565b9150509250925092565b610dd281610d09565b8114610ddd57600080fd5b50565b600081359050610def81610dc9565b92915050565b600060208284031215610e0b57610e0a610d45565b5b6000610e1984828501610de0565b91505092915050565b6000606082019050610e376000830186610d1b565b610e446020830185610cbf565b610e516040830184610cbf565b949350505050565b600081519050919050565b600082825260208201905092915050565b6000819050602082019050919050565b610e8e81610cb5565b82525050565b6000610ea08383610e85565b60208301905092915050565b6000602082019050919050565b6000610ec482610e59565b610ece8185610e64565b9350610ed983610e75565b8060005b83811015610f0a578151610ef18882610e94565b9750610efc83610eac565b925050600181019050610edd565b5085935050505092915050565b60006060820190508181036000830152610f318186610eb9565b90508181036020830152610f458185610eb9565b90508181036040830152610f598184610eb9565b9050949350505050565b6000606082019050610f786000830186610cbf565b610f856020830185610cbf565b610f926040830184610cbf565b949350505050565b60008060408385031215610fb157610fb0610d45565b5b6000610fbf85828601610d61565b9250506020610fd085828601610d61565b9150509250929050565b7f4e487b7100000000000000000000000000000000000000000000000000000000600052601160045260246000fd5b600061101482610cb5565b915061101f83610cb5565b925082820261102d81610cb5565b9150828204841483151761104457611043610fda565b5b5092915050565b7f4e487b7100000000000000000000000000000000000000000000000000000000600052601260045260246000fd5b600061108582610cb5565b915061109083610cb5565b9250826110a05761109f61104b565b5b828204905092915050565b7f4e487b7100000000000000000000000000000000000000000000000000000000600052603260045260246000fd5b60006110e582610cb5565b91507fffffffffffffffffffffffffffffffffffffffffffffffffffffffffffffffff820361111757611116610fda565b5b600182019050919050565b600061112d82610cb5565b915061113883610cb5565b92508282019050808211156111505761114f610fda565b5b92915050565b600061116182610cb5565b915061116c83610cb5565b925082820390508181111561118457611183610fda565b5b92915050565b7f4e487b7100000000000000000000000000000000000000000000000000000000600052604160045260246000fdfea264697066735822122091d7a2d472e5ac140e67ecd6d28c5f534fff3ea11076d7fcb45b5df40a8fe3da64736f6c63430008140033","opcodes":"PUSH1 0x80 PUSH1 0x40 MSTORE PUSH4 0xB2D05E00 PUSH1 0x1 SSTORE PUSH3 0xB71B0 PUSH1 0x2 SSTORE CALLVALUE DUP1 ISZERO PUSH2 0x1F JUMPI PUSH1 0x0 DUP1 REVERT JUMPDEST POP PUSH2 0x11EF DUP1 PUSH2 0x2F PUSH1 0x0 CODECOPY PUSH1 0x0 RETURN INVALID PUSH1 0x80 PUSH1 0x40 MSTORE CALLVALUE DUP1 ISZERO PUSH2 0x10 JUMPI PUSH1 0x0 DUP1 REVERT JUMPDEST POP PUSH1 0x4 CALLDATASIZE LT PUSH2 0xA9 JUMPI PUSH1 0x0 CALLDATALOAD PUSH1 0xE0 SHR DUP1 PUSH4 0x7BAAB3DA GT PUSH2 0x71 JUMPI DUP1 PUSH4 0x7BAAB3DA EQ PUSH2 0x142 JUMPI DUP1 PUSH4 0x91D011CE EQ PUSH2 0x174 JUMPI DUP1 PUSH4 0xD73D56BB EQ PUSH2 0x1A4 JUMPI DUP1 PUSH4 0xDFF46859 EQ PUSH2 0x1C2 JUMPI DUP1 PUSH4 0xEB22AE11 EQ PUSH2 0x1F4 JUMPI DUP1 PUSH4 0xEF88D7F0 EQ PUSH2 0x226 JUMPI PUSH2 0xA9 JUMP JUMPDEST DUP1 PUSH4 0x72CF5F0 EQ PUSH2 0xAE JUMPI DUP1 PUSH4 0x41D2C4CB EQ PUSH2 0xCC JUMPI DUP1 PUSH4 0x4240686C EQ PUSH2 0xEA JUMPI DUP1 PUSH4 0x67C292E5 EQ PUSH2 0x108 JUMPI DUP1 PUSH4 0x6DB16C11 EQ PUSH2 0x124 JUMPI JUMPDEST PUSH1 0x0 DUP1 REVERT JUMPDEST PUSH2 0xB6 PUSH2 0x242 JUMP JUMPDEST PUSH1 0x40 MLOAD PUSH2 0xC3 SWAP2 SWAP1 PUSH2 0xCCE JUMP JUMPDEST PUSH1 0x40 MLOAD DUP1 SWAP2 SUB SWAP1 RETURN JUMPDEST PUSH2 0xD4 PUSH2 0x248 JUMP JUMPDEST PUSH1 0x40 MLOAD PUSH2 0xE1 SWAP2 SWAP1 PUSH2 0xD2A JUMP JUMPDEST PUSH1 0x40 MLOAD DUP1 SWAP2 SUB SWAP1 RETURN JUMPDEST PUSH2 0xF2 PUSH2 0x260 JUMP JUMPDEST PUSH1 0x40 MLOAD PUSH2 0xFF SWAP2 SWAP1 PUSH2 0xD2A JUMP JUMPDEST PUSH1 0x40 MLOAD DUP1 SWAP2 SUB SWAP1 RETURN JUMPDEST PUSH2 0x122 PUSH1 0x4 DUP1 CALLDATASIZE SUB DUP2 ADD SWAP1 PUSH2 0x11D SWAP2 SWAP1 PUSH2 0xD76 JUMP JUMPDEST PUSH2 0x278 JUMP JUMPDEST STOP JUMPDEST PUSH2 0x12C PUSH2 0x6A5 JUMP JUMPDEST PUSH1 0x40 MLOAD PUSH2 0x139 SWAP2 SWAP1 PUSH2 0xD2A JUMP JUMPDEST PUSH1 0x40 MLOAD DUP1 SWAP2 SUB SWAP1 RETURN JUMPDEST PUSH2 0x15C PUSH1 0x4 DUP1 CALLDATASIZE SUB DUP2 ADD SWAP1 PUSH2 0x157 SWAP2 SWAP1 PUSH2 0xDF5 JUMP JUMPDEST PUSH2 0x6BD JUMP JUMPDEST PUSH1 0x40 MLOAD PUSH2 0x16B SWAP4 SWAP3 SWAP2 SWAP1 PUSH2 0xE22 JUMP JUMPDEST PUSH1 0x40 MLOAD DUP1 SWAP2 SUB SWAP1 RETURN JUMPDEST PUSH2 0x18E PUSH1 0x4 DUP1 CALLDATASIZE SUB DUP2 ADD SWAP1 PUSH2 0x189 SWAP2 SWAP1 PUSH2 0xDF5 JUMP JUMPDEST PUSH2 0x707 JUMP JUMPDEST PUSH1 0x40 MLOAD PUSH2 0x19B SWAP2 SWAP1 PUSH2 0xCCE JUMP JUMPDEST PUSH1 0x40 MLOAD DUP1 SWAP2 SUB SWAP1 RETURN JUMPDEST PUSH2 0x1AC PUSH2 0x987 JUMP JUMPDEST PUSH1 0x40 MLOAD PUSH2 0x1B9 SWAP2 SWAP1 PUSH2 0xCCE JUMP JUMPDEST PUSH1 0x40 MLOAD DUP1 SWAP2 SUB SWAP1 RETURN JUMPDEST PUSH2 0x1DC PUSH1 0x4 DUP1 CALLDATASIZE SUB DUP2 ADD SWAP1 PUSH2 0x1D7 SWAP2 SWAP1 PUSH2 0xDF5 JUMP JUMPDEST PUSH2 0x98D JUMP JUMPDEST PUSH1 0x40 MLOAD PUSH2 0x1EB SWAP4 SWAP3 SWAP2 SWAP1 PUSH2 0xF17 JUMP JUMPDEST PUSH1 0x40 MLOAD DUP1 SWAP2 SUB SWAP1 RETURN JUMPDEST PUSH2 0x20E PUSH1 0x4 DUP1 CALLDATASIZE SUB DUP2 ADD SWAP1 PUSH2 0x209 SWAP2 SWAP1 PUSH2 0xDF5 JUMP JUMPDEST PUSH2 0xC3D JUMP JUMPDEST PUSH1 0x40 MLOAD PUSH2 0x21D SWAP4 SWAP3 SWAP2 SWAP1 PUSH2 0xF63 JUMP JUMPDEST PUSH1 0x40 MLOAD DUP1 SWAP2 SUB SWAP1 RETURN JUMPDEST PUSH2 0x240 PUSH1 0x4 DUP1 CALLDATASIZE SUB DUP2 ADD SWAP1 PUSH2 0x23B SWAP2 SWAP1 PUSH2 0xF9A JUMP JUMPDEST PUSH2 0xCA3 JUMP JUMPDEST STOP JUMPDEST PUSH1 0x2 SLOAD DUP2 JUMP JUMPDEST PUSH20 0x36CBD53842C5426634E7929541EC2318F3DCF7E DUP2 JUMP JUMPDEST PUSH20 0x1C7D4B196CB0C7B01D743FBC6116A902379C7238 DUP2 JUMP JUMPDEST PUSH1 0x0 DUP1 PUSH1 0x0 CALLER PUSH20 0xFFFFFFFFFFFFFFFFFFFFFFFFFFFFFFFFFFFFFFFF AND PUSH20 0xFFFFFFFFFFFFFFFFFFFFFFFFFFFFFFFFFFFFFFFF AND DUP2 MSTORE PUSH1 0x20 ADD SWAP1 DUP2 MSTORE PUSH1 0x20 ADD PUSH1 0x0 KECCAK256 SWAP1 POP PUSH1 0x0 PUSH1 0x1 DUP6 EQ DUP1 PUSH2 0x2CC JUMPI POP PUSH2 0x2105 DUP6 EQ JUMPDEST ISZERO PUSH2 0x2F9 JUMPI PUSH8 0xDE0B6B3A7640000 PUSH1 0x1 SLOAD DUP6 PUSH2 0x2E8 SWAP2 SWAP1 PUSH2 0x1009 JUMP JUMPDEST PUSH2 0x2F2 SWAP2 SWAP1 PUSH2 0x107A JUMP JUMPDEST SWAP1 POP PUSH2 0x326 JUMP JUMPDEST PUSH1 0x89 DUP6 SUB PUSH2 0x325 JUMPI PUSH8 0xDE0B6B3A7640000 PUSH1 0x2 SLOAD DUP6 PUSH2 0x318 SWAP2 SWAP1 PUSH2 0x1009 JUMP JUMPDEST PUSH2 0x322 SWAP2 SWAP1 PUSH2 0x107A JUMP JUMPDEST SWAP1 POP JUMPDEST JUMPDEST PUSH1 0x0 DUP1 JUMPDEST DUP4 PUSH1 0x3 ADD DUP1 SLOAD SWAP1 POP DUP2 LT ISZERO PUSH2 0x407 JUMPI DUP7 DUP5 PUSH1 0x3 ADD DUP3 DUP2 SLOAD DUP2 LT PUSH2 0x350 JUMPI PUSH2 0x34F PUSH2 0x10AB JUMP JUMPDEST JUMPDEST SWAP1 PUSH1 0x0 MSTORE PUSH1 0x20 PUSH1 0x0 KECCAK256 SWAP1 PUSH1 0x4 MUL ADD PUSH1 0x0 ADD SLOAD SUB PUSH2 0x3F4 JUMPI DUP6 DUP5 PUSH1 0x3 ADD DUP3 DUP2 SLOAD DUP2 LT PUSH2 0x37E JUMPI PUSH2 0x37D PUSH2 0x10AB JUMP JUMPDEST JUMPDEST SWAP1 PUSH1 0x0 MSTORE PUSH1 0x20 PUSH1 0x0 KECCAK256 SWAP1 PUSH1 0x4 MUL ADD PUSH1 0x1 ADD DUP2 SWAP1 SSTORE POP DUP5 DUP5 PUSH1 0x3 ADD DUP3 DUP2 SLOAD DUP2 LT PUSH2 0x3AA JUMPI PUSH2 0x3A9 PUSH2 0x10AB JUMP JUMPDEST JUMPDEST SWAP1 PUSH1 0x0 MSTORE PUSH1 0x20 PUSH1 0x0 KECCAK256 SWAP1 PUSH1 0x4 MUL ADD PUSH1 0x2 ADD DUP2 SWAP1 SSTORE POP TIMESTAMP DUP5 PUSH1 0x3 ADD DUP3 DUP2 SLOAD DUP2 LT PUSH2 0x3D6 JUMPI PUSH2 0x3D5 PUSH2 0x10AB JUMP JUMPDEST JUMPDEST SWAP1 PUSH1 0x0 MSTORE PUSH1 0x20 PUSH1 0x0 KECCAK256 SWAP1 PUSH1 0x4 MUL ADD PUSH1 0x3 ADD DUP2 SWAP1 SSTORE POP PUSH1 0x1 SWAP2 POP PUSH2 0x407 JUMP JUMPDEST DUP1 DUP1 PUSH2 0x3FF SWAP1 PUSH2 0x10DA JUMP JUMPDEST SWAP2 POP POP PUSH2 0x32A JUMP JUMPDEST POP DUP1 PUSH2 0x486 JUMPI DUP3 PUSH1 0x3 ADD PUSH1 0x40 MLOAD DUP1 PUSH1 0x80 ADD PUSH1 0x40 MSTORE DUP1 DUP9 DUP2 MSTORE PUSH1 0x20 ADD DUP8 DUP2 MSTORE PUSH1 0x20 ADD DUP7 DUP2 MSTORE PUSH1 0x20 ADD TIMESTAMP DUP2 MSTORE POP SWAP1 DUP1 PUSH1 0x1 DUP2 SLOAD ADD DUP1 DUP3 SSTORE DUP1 SWAP2 POP POP PUSH1 0x1 SWAP1 SUB SWAP1 PUSH1 0x0 MSTORE PUSH1 0x20 PUSH1 0x0 KECCAK256 SWAP1 PUSH1 0x4 MUL ADD PUSH1 0x0 SWAP1 SWAP2 SWAP1 SWAP2 SWAP1 SWAP2 POP PUSH1 0x0 DUP3 ADD MLOAD DUP2 PUSH1 0x0 ADD SSTORE PUSH1 0x20 DUP3 ADD MLOAD DUP2 PUSH1 0x1 ADD SSTORE PUSH1 0x40 DUP3 ADD MLOAD DUP2 PUSH1 0x2 ADD SSTORE PUSH1 0x60 DUP3 ADD MLOAD DUP2 PUSH1 0x3 ADD SSTORE POP POP JUMPDEST PUSH1 0x0 DUP1 JUMPDEST DUP5 PUSH1 0x3 ADD DUP1 SLOAD SWAP1 POP DUP2 LT ISZERO PUSH2 0x5A6 JUMPI PUSH1 0x0 DUP6 PUSH1 0x3 ADD DUP3 DUP2 SLOAD DUP2 LT PUSH2 0x4B1 JUMPI PUSH2 0x4B0 PUSH2 0x10AB JUMP JUMPDEST JUMPDEST SWAP1 PUSH1 0x0 MSTORE PUSH1 0x20 PUSH1 0x0 KECCAK256 SWAP1 PUSH1 0x4 MUL ADD PUSH1 0x40 MLOAD DUP1 PUSH1 0x80 ADD PUSH1 0x40 MSTORE SWAP1 DUP2 PUSH1 0x0 DUP3 ADD SLOAD DUP2 MSTORE PUSH1 0x20 ADD PUSH1 0x1 DUP3 ADD SLOAD DUP2 MSTORE PUSH1 0x20 ADD PUSH1 0x2 DUP3 ADD SLOAD DUP2 MSTORE PUSH1 0x20 ADD PUSH1 0x3 DUP3 ADD SLOAD DUP2 MSTORE POP POP SWAP1 POP PUSH1 0x0 PUSH1 0x1 DUP3 PUSH1 0x0 ADD MLOAD EQ DUP1 PUSH2 0x50E JUMPI POP PUSH2 0x2105 DUP3 PUSH1 0x0 ADD MLOAD EQ JUMPDEST ISZERO PUSH2 0x53F JUMPI PUSH8 0xDE0B6B3A7640000 PUSH1 0x1 SLOAD DUP4 PUSH1 0x20 ADD MLOAD PUSH2 0x52E SWAP2 SWAP1 PUSH2 0x1009 JUMP JUMPDEST PUSH2 0x538 SWAP2 SWAP1 PUSH2 0x107A JUMP JUMPDEST SWAP1 POP PUSH2 0x574 JUMP JUMPDEST PUSH1 0x89 DUP3 PUSH1 0x0 ADD MLOAD SUB PUSH2 0x573 JUMPI PUSH8 0xDE0B6B3A7640000 PUSH1 0x2 SLOAD DUP4 PUSH1 0x20 ADD MLOAD PUSH2 0x566 SWAP2 SWAP1 PUSH2 0x1009 JUMP JUMPDEST PUSH2 0x570 SWAP2 SWAP1 PUSH2 0x107A JUMP JUMPDEST SWAP1 POP JUMPDEST JUMPDEST DUP2 PUSH1 0x40 ADD MLOAD DUP2 PUSH2 0x584 SWAP2 SWAP1 PUSH2 0x1122 JUMP JUMPDEST DUP5 PUSH2 0x58F SWAP2 SWAP1 PUSH2 0x1122 JUMP JUMPDEST SWAP4 POP POP POP DUP1 DUP1 PUSH2 0x59E SWAP1 PUSH2 0x10DA JUMP JUMPDEST SWAP2 POP POP PUSH2 0x48A JUMP JUMPDEST POP CALLER DUP5 PUSH1 0x0 ADD PUSH1 0x0 PUSH2 0x100 EXP DUP2 SLOAD DUP2 PUSH20 0xFFFFFFFFFFFFFFFFFFFFFFFFFFFFFFFFFFFFFFFF MUL NOT AND SWAP1 DUP4 PUSH20 0xFFFFFFFFFFFFFFFFFFFFFFFFFFFFFFFFFFFFFFFF AND MUL OR SWAP1 SSTORE POP DUP1 DUP5 PUSH1 0x2 ADD DUP2 SWAP1 SSTORE POP TIMESTAMP DUP5 PUSH1 0x1 ADD DUP2 SWAP1 SSTORE POP CALLER PUSH20 0xFFFFFFFFFFFFFFFFFFFFFFFFFFFFFFFFFFFFFFFF AND PUSH32 0xFCFA0761DAB6873023E04C2D8E99CEFDC3D64EE860C8BDF9742211179E723BED DUP3 PUSH1 0x40 MLOAD PUSH2 0x642 SWAP2 SWAP1 PUSH2 0xCCE JUMP JUMPDEST PUSH1 0x40 MLOAD DUP1 SWAP2 SUB SWAP1 LOG2 CALLER PUSH20 0xFFFFFFFFFFFFFFFFFFFFFFFFFFFFFFFFFFFFFFFF AND PUSH32 0xB82AC62909692ABE3DDDBEA75FD32C2BB973CDFE8DD3040C1883B7B72CA487E DUP9 DUP9 DUP9 PUSH1 0x40 MLOAD PUSH2 0x694 SWAP4 SWAP3 SWAP2 SWAP1 PUSH2 0xF63 JUMP JUMPDEST PUSH1 0x40 MLOAD DUP1 SWAP2 SUB SWAP1 LOG2 POP POP POP POP POP POP POP JUMP JUMPDEST PUSH20 0x41E94EB019C0762F9BFCF9FB1E58725BFB0E7582 DUP2 JUMP JUMPDEST PUSH1 0x0 PUSH1 0x20 MSTORE DUP1 PUSH1 0x0 MSTORE PUSH1 0x40 PUSH1 0x0 KECCAK256 PUSH1 0x0 SWAP2 POP SWAP1 POP DUP1 PUSH1 0x0 ADD PUSH1 0x0 SWAP1 SLOAD SWAP1 PUSH2 0x100 EXP SWAP1 DIV PUSH20 0xFFFFFFFFFFFFFFFFFFFFFFFFFFFFFFFFFFFFFFFF AND SWAP1 DUP1 PUSH1 0x1 ADD SLOAD SWAP1 DUP1 PUSH1 0x2 ADD SLOAD SWAP1 POP DUP4 JUMP JUMPDEST PUSH1 0x0 DUP1 PUSH1 0x0 DUP1 DUP5 PUSH20 0xFFFFFFFFFFFFFFFFFFFFFFFFFFFFFFFFFFFFFFFF AND PUSH20 0xFFFFFFFFFFFFFFFFFFFFFFFFFFFFFFFFFFFFFFFF AND DUP2 MSTORE PUSH1 0x20 ADD SWAP1 DUP2 MSTORE PUSH1 0x20 ADD PUSH1 0x0 KECCAK256 SWAP1 POP PUSH1 0x0 DUP2 PUSH1 0x3 ADD DUP1 SLOAD SWAP1 POP SUB PUSH2 0x763 JUMPI PUSH1 0x0 SWAP2 POP POP PUSH2 0x982 JUMP JUMPDEST PUSH1 0x0 DUP2 PUSH1 0x2 ADD SLOAD SWAP1 POP PUSH1 0x0 DUP2 SUB PUSH2 0x77F JUMPI PUSH1 0x0 SWAP3 POP POP POP PUSH2 0x982 JUMP JUMPDEST PUSH1 0x0 JUMPDEST DUP3 PUSH1 0x3 ADD DUP1 SLOAD SWAP1 POP DUP2 LT ISZERO PUSH2 0x8C9 JUMPI PUSH1 0x0 DUP4 PUSH1 0x3 ADD DUP3 DUP2 SLOAD DUP2 LT PUSH2 0x7A9 JUMPI PUSH2 0x7A8 PUSH2 0x10AB JUMP JUMPDEST JUMPDEST SWAP1 PUSH1 0x0 MSTORE PUSH1 0x20 PUSH1 0x0 KECCAK256 SWAP1 PUSH1 0x4 MUL ADD PUSH1 0x40 MLOAD DUP1 PUSH1 0x80 ADD PUSH1 0x40 MSTORE SWAP1 DUP2 PUSH1 0x0 DUP3 ADD SLOAD DUP2 MSTORE PUSH1 0x20 ADD PUSH1 0x1 DUP3 ADD SLOAD DUP2 MSTORE PUSH1 0x20 ADD PUSH1 0x2 DUP3 ADD SLOAD DUP2 MSTORE PUSH1 0x20 ADD PUSH1 0x3 DUP3 ADD SLOAD DUP2 MSTORE POP POP SWAP1 POP PUSH1 0x0 PUSH1 0x1 DUP3 PUSH1 0x0 ADD MLOAD EQ DUP1 PUSH2 0x806 JUMPI POP PUSH2 0x2105 DUP3 PUSH1 0x0 ADD MLOAD EQ JUMPDEST ISZERO PUSH2 0x837 JUMPI PUSH8 0xDE0B6B3A7640000 PUSH1 0x1 SLOAD DUP4 PUSH1 0x20 ADD MLOAD PUSH2 0x826 SWAP2 SWAP1 PUSH2 0x1009 JUMP JUMPDEST PUSH2 0x830 SWAP2 SWAP1 PUSH2 0x107A JUMP JUMPDEST SWAP1 POP PUSH2 0x86C JUMP JUMPDEST PUSH1 0x89 DUP3 PUSH1 0x0 ADD MLOAD SUB PUSH2 0x86B JUMPI PUSH8 0xDE0B6B3A7640000 PUSH1 0x2 SLOAD DUP4 PUSH1 0x20 ADD MLOAD PUSH2 0x85E SWAP2 SWAP1 PUSH2 0x1009 JUMP JUMPDEST PUSH2 0x868 SWAP2 SWAP1 PUSH2 0x107A JUMP JUMPDEST SWAP1 POP JUMPDEST JUMPDEST DUP2 PUSH1 0x40 ADD MLOAD DUP2 PUSH2 0x87C SWAP2 SWAP1 PUSH2 0x1122 JUMP JUMPDEST SWAP1 POP PUSH1 0x0 DUP5 PUSH1 0x64 DUP4 PUSH2 0x88E SWAP2 SWAP1 PUSH2 0x1009 JUMP JUMPDEST PUSH2 0x898 SWAP2 SWAP1 PUSH2 0x107A JUMP JUMPDEST SWAP1 POP PUSH1 0x32 DUP2 GT ISZERO PUSH2 0x8B3 JUMPI PUSH1 0x1E DUP8 PUSH2 0x8B0 SWAP2 SWAP1 PUSH2 0x1122 JUMP JUMPDEST SWAP7 POP JUMPDEST POP POP POP DUP1 DUP1 PUSH2 0x8C1 SWAP1 PUSH2 0x10DA JUMP JUMPDEST SWAP2 POP POP PUSH2 0x782 JUMP JUMPDEST POP PUSH1 0x0 DUP1 JUMPDEST DUP4 PUSH1 0x3 ADD DUP1 SLOAD SWAP1 POP DUP2 LT ISZERO PUSH2 0x925 JUMPI DUP4 PUSH1 0x3 ADD DUP2 DUP2 SLOAD DUP2 LT PUSH2 0x8F3 JUMPI PUSH2 0x8F2 PUSH2 0x10AB JUMP JUMPDEST JUMPDEST SWAP1 PUSH1 0x0 MSTORE PUSH1 0x20 PUSH1 0x0 KECCAK256 SWAP1 PUSH1 0x4 MUL ADD PUSH1 0x2 ADD SLOAD DUP3 PUSH2 0x910 SWAP2 SWAP1 PUSH2 0x1122 JUMP JUMPDEST SWAP2 POP DUP1 DUP1 PUSH2 0x91D SWAP1 PUSH2 0x10DA JUMP JUMPDEST SWAP2 POP POP PUSH2 0x8CE JUMP JUMPDEST POP PUSH1 0x0 DUP3 PUSH1 0x64 DUP4 PUSH2 0x936 SWAP2 SWAP1 PUSH2 0x1009 JUMP JUMPDEST PUSH2 0x940 SWAP2 SWAP1 PUSH2 0x107A JUMP JUMPDEST SWAP1 POP PUSH1 0x14 DUP2 LT PUSH2 0x96A JUMPI PUSH1 0x14 DUP6 GT PUSH2 0x959 JUMPI PUSH1 0x0 PUSH2 0x967 JUMP JUMPDEST PUSH1 0x14 DUP6 PUSH2 0x966 SWAP2 SWAP1 PUSH2 0x1156 JUMP JUMPDEST JUMPDEST SWAP5 POP JUMPDEST PUSH1 0x64 DUP6 GT PUSH2 0x978 JUMPI DUP5 PUSH2 0x97B JUMP JUMPDEST PUSH1 0x64 JUMPDEST SWAP5 POP POP POP POP POP JUMPDEST SWAP2 SWAP1 POP JUMP JUMPDEST PUSH1 0x1 SLOAD DUP2 JUMP JUMPDEST PUSH1 0x60 DUP1 PUSH1 0x60 PUSH1 0x0 DUP1 PUSH1 0x0 DUP7 PUSH20 0xFFFFFFFFFFFFFFFFFFFFFFFFFFFFFFFFFFFFFFFF AND PUSH20 0xFFFFFFFFFFFFFFFFFFFFFFFFFFFFFFFFFFFFFFFF AND DUP2 MSTORE PUSH1 0x20 ADD SWAP1 DUP2 MSTORE PUSH1 0x20 ADD PUSH1 0x0 KECCAK256 SWAP1 POP PUSH1 0x0 DUP2 PUSH1 0x3 ADD DUP1 SLOAD SWAP1 POP SWAP1 POP DUP1 PUSH8 0xFFFFFFFFFFFFFFFF DUP2 GT ISZERO PUSH2 0x9FA JUMPI PUSH2 0x9F9 PUSH2 0x118A JUMP JUMPDEST JUMPDEST PUSH1 0x40 MLOAD SWAP1 DUP1 DUP3 MSTORE DUP1 PUSH1 0x20 MUL PUSH1 0x20 ADD DUP3 ADD PUSH1 0x40 MSTORE DUP1 ISZERO PUSH2 0xA28 JUMPI DUP2 PUSH1 0x20 ADD PUSH1 0x20 DUP3 MUL DUP1 CALLDATASIZE DUP4 CALLDATACOPY DUP1 DUP3 ADD SWAP2 POP POP SWAP1 POP JUMPDEST POP SWAP5 POP DUP1 PUSH8 0xFFFFFFFFFFFFFFFF DUP2 GT ISZERO PUSH2 0xA45 JUMPI PUSH2 0xA44 PUSH2 0x118A JUMP JUMPDEST JUMPDEST PUSH1 0x40 MLOAD SWAP1 DUP1 DUP3 MSTORE DUP1 PUSH1 0x20 MUL PUSH1 0x20 ADD DUP3 ADD PUSH1 0x40 MSTORE DUP1 ISZERO PUSH2 0xA73 JUMPI DUP2 PUSH1 0x20 ADD PUSH1 0x20 DUP3 MUL DUP1 CALLDATASIZE DUP4 CALLDATACOPY DUP1 DUP3 ADD SWAP2 POP POP SWAP1 POP JUMPDEST POP SWAP4 POP DUP1 PUSH8 0xFFFFFFFFFFFFFFFF DUP2 GT ISZERO PUSH2 0xA90 JUMPI PUSH2 0xA8F PUSH2 0x118A JUMP JUMPDEST JUMPDEST PUSH1 0x40 MLOAD SWAP1 DUP1 DUP3 MSTORE DUP1 PUSH1 0x20 MUL PUSH1 0x20 ADD DUP3 ADD PUSH1 0x40 MSTORE DUP1 ISZERO PUSH2 0xABE JUMPI DUP2 PUSH1 0x20 ADD PUSH1 0x20 DUP3 MUL DUP1 CALLDATASIZE DUP4 CALLDATACOPY DUP1 DUP3 ADD SWAP2 POP POP SWAP1 POP JUMPDEST POP SWAP3 POP PUSH1 0x0 JUMPDEST DUP2 DUP2 LT ISZERO PUSH2 0xC33 JUMPI PUSH1 0x0 DUP4 PUSH1 0x3 ADD DUP3 DUP2 SLOAD DUP2 LT PUSH2 0xAE4 JUMPI PUSH2 0xAE3 PUSH2 0x10AB JUMP JUMPDEST JUMPDEST SWAP1 PUSH1 0x0 MSTORE PUSH1 0x20 PUSH1 0x0 KECCAK256 SWAP1 PUSH1 0x4 MUL ADD PUSH1 0x40 MLOAD DUP1 PUSH1 0x80 ADD PUSH1 0x40 MSTORE SWAP1 DUP2 PUSH1 0x0 DUP3 ADD SLOAD DUP2 MSTORE PUSH1 0x20 ADD PUSH1 0x1 DUP3 ADD SLOAD DUP2 MSTORE PUSH1 0x20 ADD PUSH1 0x2 DUP3 ADD SLOAD DUP2 MSTORE PUSH1 0x20 ADD PUSH1 0x3 DUP3 ADD SLOAD DUP2 MSTORE POP POP SWAP1 POP DUP1 PUSH1 0x0 ADD MLOAD DUP8 DUP4 DUP2 MLOAD DUP2 LT PUSH2 0xB3F JUMPI PUSH2 0xB3E PUSH2 0x10AB JUMP JUMPDEST JUMPDEST PUSH1 0x20 MUL PUSH1 0x20 ADD ADD DUP2 DUP2 MSTORE POP POP DUP1 PUSH1 0x60 ADD MLOAD DUP6 DUP4 DUP2 MLOAD DUP2 LT PUSH2 0xB63 JUMPI PUSH2 0xB62 PUSH2 0x10AB JUMP JUMPDEST JUMPDEST PUSH1 0x20 MUL PUSH1 0x20 ADD ADD DUP2 DUP2 MSTORE POP POP PUSH1 0x0 PUSH1 0x1 DUP3 PUSH1 0x0 ADD MLOAD EQ DUP1 PUSH2 0xB89 JUMPI POP PUSH2 0x2105 DUP3 PUSH1 0x0 ADD MLOAD EQ JUMPDEST ISZERO PUSH2 0xBBA JUMPI PUSH8 0xDE0B6B3A7640000 PUSH1 0x1 SLOAD DUP4 PUSH1 0x20 ADD MLOAD PUSH2 0xBA9 SWAP2 SWAP1 PUSH2 0x1009 JUMP JUMPDEST PUSH2 0xBB3 SWAP2 SWAP1 PUSH2 0x107A JUMP JUMPDEST SWAP1 POP PUSH2 0xBEF JUMP JUMPDEST PUSH1 0x89 DUP3 PUSH1 0x0 ADD MLOAD SUB PUSH2 0xBEE JUMPI PUSH8 0xDE0B6B3A7640000 PUSH1 0x2 SLOAD DUP4 PUSH1 0x20 ADD MLOAD PUSH2 0xBE1 SWAP2 SWAP1 PUSH2 0x1009 JUMP JUMPDEST PUSH2 0xBEB SWAP2 SWAP1 PUSH2 0x107A JUMP JUMPDEST SWAP1 POP JUMPDEST JUMPDEST DUP2 PUSH1 0x40 ADD MLOAD DUP2 PUSH2 0xBFF SWAP2 SWAP1 PUSH2 0x1122 JUMP JUMPDEST DUP8 DUP5 DUP2 MLOAD DUP2 LT PUSH2 0xC12 JUMPI PUSH2 0xC11 PUSH2 0x10AB JUMP JUMPDEST JUMPDEST PUSH1 0x20 MUL PUSH1 0x20 ADD ADD DUP2 DUP2 MSTORE POP POP POP POP DUP1 DUP1 PUSH2 0xC2B SWAP1 PUSH2 0x10DA JUMP JUMPDEST SWAP2 POP POP PUSH2 0xAC4 JUMP JUMPDEST POP POP POP SWAP2 SWAP4 SWAP1 SWAP3 POP JUMP JUMPDEST PUSH1 0x0 DUP1 PUSH1 0x0 DUP1 PUSH1 0x0 DUP1 DUP7 PUSH20 0xFFFFFFFFFFFFFFFFFFFFFFFFFFFFFFFFFFFFFFFF AND PUSH20 0xFFFFFFFFFFFFFFFFFFFFFFFFFFFFFFFFFFFFFFFF AND DUP2 MSTORE PUSH1 0x20 ADD SWAP1 DUP2 MSTORE PUSH1 0x20 ADD PUSH1 0x0 KECCAK256 SWAP1 POP DUP1 PUSH1 0x2 ADD SLOAD DUP2 PUSH1 0x1 ADD SLOAD DUP3 PUSH1 0x3 ADD DUP1 SLOAD SWAP1 POP SWAP4 POP SWAP4 POP SWAP4 POP POP SWAP2 SWAP4 SWAP1 SWAP3 POP JUMP JUMPDEST DUP2 PUSH1 0x1 DUP2 SWAP1 SSTORE POP DUP1 PUSH1 0x2 DUP2 SWAP1 SSTORE POP POP POP JUMP JUMPDEST PUSH1 0x0 DUP2 SWAP1 POP SWAP2 SWAP1 POP JUMP JUMPDEST PUSH2 0xCC8 DUP2 PUSH2 0xCB5 JUMP JUMPDEST DUP3 MSTORE POP POP JUMP JUMPDEST PUSH1 0x0 PUSH1 0x20 DUP3 ADD SWAP1 POP PUSH2 0xCE3 PUSH1 0x0 DUP4 ADD DUP5 PUSH2 0xCBF JUMP JUMPDEST SWAP3 SWAP2 POP POP JUMP JUMPDEST PUSH1 0x0 PUSH20 0xFFFFFFFFFFFFFFFFFFFFFFFFFFFFFFFFFFFFFFFF DUP3 AND SWAP1 POP SWAP2 SWAP1 POP JUMP JUMPDEST PUSH1 0x0 PUSH2 0xD14 DUP3 PUSH2 0xCE9 JUMP JUMPDEST SWAP1 POP SWAP2 SWAP1 POP JUMP JUMPDEST PUSH2 0xD24 DUP2 PUSH2 0xD09 JUMP JUMPDEST DUP3 MSTORE POP POP JUMP JUMPDEST PUSH1 0x0 PUSH1 0x20 DUP3 ADD SWAP1 POP PUSH2 0xD3F PUSH1 0x0 DUP4 ADD DUP5 PUSH2 0xD1B JUMP JUMPDEST SWAP3 SWAP2 POP POP JUMP JUMPDEST PUSH1 0x0 DUP1 REVERT JUMPDEST PUSH2 0xD53 DUP2 PUSH2 0xCB5 JUMP JUMPDEST DUP2 EQ PUSH2 0xD5E JUMPI PUSH1 0x0 DUP1 REVERT JUMPDEST POP JUMP JUMPDEST PUSH1 0x0 DUP2 CALLDATALOAD SWAP1 POP PUSH2 0xD70 DUP2 PUSH2 0xD4A JUMP JUMPDEST SWAP3 SWAP2 POP POP JUMP JUMPDEST PUSH1 0x0 DUP1 PUSH1 0x0 PUSH1 0x60 DUP5 DUP7 SUB SLT ISZERO PUSH2 0xD8F JUMPI PUSH2 0xD8E PUSH2 0xD45 JUMP JUMPDEST JUMPDEST PUSH1 0x0 PUSH2 0xD9D DUP7 DUP3 DUP8 ADD PUSH2 0xD61 JUMP JUMPDEST SWAP4 POP POP PUSH1 0x20 PUSH2 0xDAE DUP7 DUP3 DUP8 ADD PUSH2 0xD61 JUMP JUMPDEST SWAP3 POP POP PUSH1 0x40 PUSH2 0xDBF DUP7 DUP3 DUP8 ADD PUSH2 0xD61 JUMP JUMPDEST SWAP2 POP POP SWAP3 POP SWAP3 POP SWAP3 JUMP JUMPDEST PUSH2 0xDD2 DUP2 PUSH2 0xD09 JUMP JUMPDEST DUP2 EQ PUSH2 0xDDD JUMPI PUSH1 0x0 DUP1 REVERT JUMPDEST POP JUMP JUMPDEST PUSH1 0x0 DUP2 CALLDATALOAD SWAP1 POP PUSH2 0xDEF DUP2 PUSH2 0xDC9 JUMP JUMPDEST SWAP3 SWAP2 POP POP JUMP JUMPDEST PUSH1 0x0 PUSH1 0x20 DUP3 DUP5 SUB SLT ISZERO PUSH2 0xE0B JUMPI PUSH2 0xE0A PUSH2 0xD45 JUMP JUMPDEST JUMPDEST PUSH1 0x0 PUSH2 0xE19 DUP5 DUP3 DUP6 ADD PUSH2 0xDE0 JUMP JUMPDEST SWAP2 POP POP SWAP3 SWAP2 POP POP JUMP JUMPDEST PUSH1 0x0 PUSH1 0x60 DUP3 ADD SWAP1 POP PUSH2 0xE37 PUSH1 0x0 DUP4 ADD DUP7 PUSH2 0xD1B JUMP JUMPDEST PUSH2 0xE44 PUSH1 0x20 DUP4 ADD DUP6 PUSH2 0xCBF JUMP JUMPDEST PUSH2 0xE51 PUSH1 0x40 DUP4 ADD DUP5 PUSH2 0xCBF JUMP JUMPDEST SWAP5 SWAP4 POP POP POP POP JUMP JUMPDEST PUSH1 0x0 DUP2 MLOAD SWAP1 POP SWAP2 SWAP1 POP JUMP JUMPDEST PUSH1 0x0 DUP3 DUP3 MSTORE PUSH1 0x20 DUP3 ADD SWAP1 POP SWAP3 SWAP2 POP POP JUMP JUMPDEST PUSH1 0x0 DUP2 SWAP1 POP PUSH1 0x20 DUP3 ADD SWAP1 POP SWAP2 SWAP1 POP JUMP JUMPDEST PUSH2 0xE8E DUP2 PUSH2 0xCB5 JUMP JUMPDEST DUP3 MSTORE POP POP JUMP JUMPDEST PUSH1 0x0 PUSH2 0xEA0 DUP4 DUP4 PUSH2 0xE85 JUMP JUMPDEST PUSH1 0x20 DUP4 ADD SWAP1 POP SWAP3 SWAP2 POP POP JUMP JUMPDEST PUSH1 0x0 PUSH1 0x20 DUP3 ADD SWAP1 POP SWAP2 SWAP1 POP JUMP JUMPDEST PUSH1 0x0 PUSH2 0xEC4 DUP3 PUSH2 0xE59 JUMP JUMPDEST PUSH2 0xECE DUP2 DUP6 PUSH2 0xE64 JUMP JUMPDEST SWAP4 POP PUSH2 0xED9 DUP4 PUSH2 0xE75 JUMP JUMPDEST DUP1 PUSH1 0x0 JUMPDEST DUP4 DUP2 LT ISZERO PUSH2 0xF0A JUMPI DUP2 MLOAD PUSH2 0xEF1 DUP9 DUP3 PUSH2 0xE94 JUMP JUMPDEST SWAP8 POP PUSH2 0xEFC DUP4 PUSH2 0xEAC JUMP JUMPDEST SWAP3 POP POP PUSH1 0x1 DUP2 ADD SWAP1 POP PUSH2 0xEDD JUMP JUMPDEST POP DUP6 SWAP4 POP POP POP POP SWAP3 SWAP2 POP POP JUMP JUMPDEST PUSH1 0x0 PUSH1 0x60 DUP3 ADD SWAP1 POP DUP2 DUP2 SUB PUSH1 0x0 DUP4 ADD MSTORE PUSH2 0xF31 DUP2 DUP7 PUSH2 0xEB9 JUMP JUMPDEST SWAP1 POP DUP2 DUP2 SUB PUSH1 0x20 DUP4 ADD MSTORE PUSH2 0xF45 DUP2 DUP6 PUSH2 0xEB9 JUMP JUMPDEST SWAP1 POP DUP2 DUP2 SUB PUSH1 0x40 DUP4 ADD MSTORE PUSH2 0xF59 DUP2 DUP5 PUSH2 0xEB9 JUMP JUMPDEST SWAP1 POP SWAP5 SWAP4 POP POP POP POP JUMP JUMPDEST PUSH1 0x0 PUSH1 0x60 DUP3 ADD SWAP1 POP PUSH2 0xF78 PUSH1 0x0 DUP4 ADD DUP7 PUSH2 0xCBF JUMP JUMPDEST PUSH2 0xF85 PUSH1 0x20 DUP4 ADD DUP6 PUSH2 0xCBF JUMP JUMPDEST PUSH2 0xF92 PUSH1 0x40 DUP4 ADD DUP5 PUSH2 0xCBF JUMP JUMPDEST SWAP5 SWAP4 POP POP POP POP JUMP JUMPDEST PUSH1 0x0 DUP1 PUSH1 0x40 DUP4 DUP6 SUB SLT ISZERO PUSH2 0xFB1 JUMPI PUSH2 0xFB0 PUSH2 0xD45 JUMP JUMPDEST JUMPDEST PUSH1 0x0 PUSH2 0xFBF DUP6 DUP3 DUP7 ADD PUSH2 0xD61 JUMP JUMPDEST SWAP3 POP POP PUSH1 0x20 PUSH2 0xFD0 DUP6 DUP3 DUP7 ADD PUSH2 0xD61 JUMP JUMPDEST SWAP2 POP POP SWAP3 POP SWAP3 SWAP1 POP JUMP JUMPDEST PUSH32 0x4E487B7100000000000000000000000000000000000000000000000000000000 PUSH1 0x0 MSTORE PUSH1 0x11 PUSH1 0x4 MSTORE PUSH1 0x24 PUSH1 0x0 REVERT JUMPDEST PUSH1 0x0 PUSH2 0x1014 DUP3 PUSH2 0xCB5 JUMP JUMPDEST SWAP2 POP PUSH2 0x101F DUP4 PUSH2 0xCB5 JUMP JUMPDEST SWAP3 POP DUP3 DUP3 MUL PUSH2 0x102D DUP2 PUSH2 0xCB5 JUMP JUMPDEST SWAP2 POP DUP3 DUP3 DIV DUP5 EQ DUP4 ISZERO OR PUSH2 0x1044 JUMPI PUSH2 0x1043 PUSH2 0xFDA JUMP JUMPDEST JUMPDEST POP SWAP3 SWAP2 POP POP JUMP JUMPDEST PUSH32 0x4E487B7100000000000000000000000000000000000000000000000000000000 PUSH1 0x0 MSTORE PUSH1 0x12 PUSH1 0x4 MSTORE PUSH1 0x24 PUSH1 0x0 REVERT JUMPDEST PUSH1 0x0 PUSH2 0x1085 DUP3 PUSH2 0xCB5 JUMP JUMPDEST SWAP2 POP PUSH2 0x1090 DUP4 PUSH2 0xCB5 JUMP JUMPDEST SWAP3 POP DUP3 PUSH2 0x10A0 JUMPI PUSH2 0x109F PUSH2 0x104B JUMP JUMPDEST JUMPDEST DUP3 DUP3 DIV SWAP1 POP SWAP3 SWAP2 POP POP JUMP JUMPDEST PUSH32 0x4E487B7100000000000000000000000000000000000000000000000000000000 PUSH1 0x0 MSTORE PUSH1 0x32 PUSH1 0x4 MSTORE PUSH1 0x24 PUSH1 0x0 REVERT JUMPDEST PUSH1 0x0 PUSH2 0x10E5 DUP3 PUSH2 0xCB5 JUMP JUMPDEST SWAP2 POP PUSH32 0xFFFFFFFFFFFFFFFFFFFFFFFFFFFFFFFFFFFFFFFFFFFFFFFFFFFFFFFFFFFFFFFF DUP3 SUB PUSH2 0x1117 JUMPI PUSH2 0x1116 PUSH2 0xFDA JUMP JUMPDEST JUMPDEST PUSH1 0x1 DUP3 ADD SWAP1 POP SWAP2 SWAP1 POP JUMP JUMPDEST PUSH1 0x0 PUSH2 0x112D DUP3 PUSH2 0xCB5 JUMP JUMPDEST SWAP2 POP PUSH2 0x1138 DUP4 PUSH2 0xCB5 JUMP JUMPDEST SWAP3 POP DUP3 DUP3 ADD SWAP1 POP DUP1 DUP3 GT ISZERO PUSH2 0x1150 JUMPI PUSH2 0x114F PUSH2 0xFDA JUMP JUMPDEST JUMPDEST SWAP3 SWAP2 POP POP JUMP JUMPDEST PUSH1 0x0 PUSH2 0x1161 DUP3 PUSH2 0xCB5 JUMP JUMPDEST SWAP2 POP PUSH2 0x116C DUP4 PUSH2 0xCB5 JUMP JUMPDEST SWAP3 POP DUP3 DUP3 SUB SWAP1 POP DUP2 DUP2 GT ISZERO PUSH2 0x1184 JUMPI PUSH2 0x1183 PUSH2 0xFDA JUMP JUMPDEST JUMPDEST SWAP3 SWAP2 POP POP JUMP JUMPDEST PUSH32 0x4E487B7100000000000000000000000000000000000000000000000000000000 PUSH1 0x0 MSTORE PUSH1 0x41 PUSH1 0x4 MSTORE PUSH1 0x24 PUSH1 0x0 REVERT INVALID LOG2 PUSH5 0x6970667358 0x22 SLT KECCAK256 SWAP2 0xD7 LOG2 0xD4 PUSH19 0xE5AC140E67ECD6D28C5F534FFF3EA11076D7FC 0xB4 JUMPDEST 0x5D DELEGATECALL EXP DUP16 0xE3 0xDA PUSH5 0x736F6C6343 STOP ADDMOD EQ STOP CALLER "},"methodIdentifiers":{"USDC_BASE()":"41d2c4cb","USDC_ETH()":"4240686c","USDC_POLYGON()":"6db16c11","calculateRiskScore(address)":"91d011ce","ethPriceUSD()":"d73d56bb","getChainBreakdown(address)":"dff46859","getPortfolio(address)":"eb22ae11","maticPriceUSD()":"072cf5f0","portfolios(address)":"7baab3da","updateChainBalance(uint256,uint256,uint256)":"67c292e5","updatePrices(uint256,uint256)":"ef88d7f0"}}}}}